{
  "_format": "hh-sol-artifact-1",
  "contractName": "Token",
  "sourceName": "contracts/Token.sol",
  "abi": [
    {
      "inputs": [
        {
          "internalType": "address",
          "name": "owner",
          "type": "address"
        },
        {
          "internalType": "address",
          "name": "spender",
          "type": "address"
        }
      ],
      "name": "allowance",
      "outputs": [
        {
          "internalType": "uint256",
          "name": "",
          "type": "uint256"
        }
      ],
      "stateMutability": "view",
      "type": "function"
    },
    {
      "inputs": [
        {
          "internalType": "address",
          "name": "spender",
          "type": "address"
        },
        {
          "internalType": "uint256",
          "name": "value",
          "type": "uint256"
        }
      ],
      "name": "approve",
      "outputs": [
        {
          "internalType": "bool",
          "name": "",
          "type": "bool"
        }
      ],
      "stateMutability": "nonpayable",
      "type": "function"
    },
    {
      "inputs": [
        {
          "internalType": "address",
          "name": "",
          "type": "address"
        }
      ],
      "name": "balanceOf",
      "outputs": [
        {
          "internalType": "uint256",
          "name": "",
          "type": "uint256"
        }
      ],
      "stateMutability": "view",
      "type": "function"
    },
    {
      "inputs": [
        {
          "internalType": "address payable",
          "name": "dest",
          "type": "address"
        }
      ],
      "name": "burn",
      "outputs": [],
      "stateMutability": "nonpayable",
      "type": "function"
    },
    {
      "inputs": [],
      "name": "decimals",
      "outputs": [
        {
          "internalType": "uint256",
          "name": "",
          "type": "uint256"
        }
      ],
      "stateMutability": "view",
      "type": "function"
    },
    {
      "inputs": [],
      "name": "getNumTokenHolders",
      "outputs": [
        {
          "internalType": "uint256",
          "name": "",
          "type": "uint256"
        }
      ],
      "stateMutability": "view",
      "type": "function"
    },
    {
      "inputs": [
        {
          "internalType": "uint256",
          "name": "index",
          "type": "uint256"
        }
      ],
      "name": "getTokenHolder",
      "outputs": [
        {
          "internalType": "address",
          "name": "",
          "type": "address"
        }
      ],
      "stateMutability": "view",
      "type": "function"
    },
    {
      "inputs": [
        {
          "internalType": "address",
          "name": "payee",
          "type": "address"
        }
      ],
      "name": "getWithdrawableDividend",
      "outputs": [
        {
          "internalType": "uint256",
          "name": "",
          "type": "uint256"
        }
      ],
      "stateMutability": "view",
      "type": "function"
    },
    {
      "inputs": [],
      "name": "mint",
      "outputs": [],
      "stateMutability": "payable",
      "type": "function"
    },
    {
      "inputs": [],
      "name": "name",
      "outputs": [
        {
          "internalType": "string",
          "name": "",
          "type": "string"
        }
      ],
      "stateMutability": "view",
      "type": "function"
    },
    {
      "inputs": [],
      "name": "recordDividend",
      "outputs": [],
      "stateMutability": "payable",
      "type": "function"
    },
    {
      "inputs": [],
      "name": "symbol",
      "outputs": [
        {
          "internalType": "string",
          "name": "",
          "type": "string"
        }
      ],
      "stateMutability": "view",
      "type": "function"
    },
    {
      "inputs": [],
      "name": "totalSupply",
      "outputs": [
        {
          "internalType": "uint256",
          "name": "",
          "type": "uint256"
        }
      ],
      "stateMutability": "view",
      "type": "function"
    },
    {
      "inputs": [
        {
          "internalType": "address",
          "name": "to",
          "type": "address"
        },
        {
          "internalType": "uint256",
          "name": "value",
          "type": "uint256"
        }
      ],
      "name": "transfer",
      "outputs": [
        {
          "internalType": "bool",
          "name": "",
          "type": "bool"
        }
      ],
      "stateMutability": "nonpayable",
      "type": "function"
    },
    {
      "inputs": [
        {
          "internalType": "address",
          "name": "from",
          "type": "address"
        },
        {
          "internalType": "address",
          "name": "to",
          "type": "address"
        },
        {
          "internalType": "uint256",
          "name": "value",
          "type": "uint256"
        }
      ],
      "name": "transferFrom",
      "outputs": [
        {
          "internalType": "bool",
          "name": "",
          "type": "bool"
        }
      ],
      "stateMutability": "nonpayable",
      "type": "function"
    },
    {
      "inputs": [
        {
          "internalType": "address payable",
          "name": "dest",
          "type": "address"
        }
      ],
      "name": "withdrawDividend",
      "outputs": [],
      "stateMutability": "nonpayable",
      "type": "function"
    }
  ],
  "bytecode": "0x601260015560c0604052600a6080819052692a32b9ba103a37b5b2b760b11b60a0908152610030916002919061006f565b5060408051808201909152600480825263151154d560e21b602090920191825261005c9160039161006f565b5034801561006957600080fd5b50610102565b828054600181600116156101000203166002900490600052602060002090601f016020900481019282601f106100b057805160ff19168380011785556100dd565b828001600101855582156100dd579182015b828111156100dd5782518255916020019190600101906100c2565b506100e99291506100ed565b5090565b5b808211156100e957600081556001016100ee565b610ec6806101116000396000f3fe6080604052600436106100f35760003560e01c806389afcb441161008a578063a4138b9b11610059578063a4138b9b14610323578063a9059cbb14610356578063ca55954c1461038f578063dd62ed3e146103d5576100f3565b806389afcb441461029357806395d89b41146102c65780639c53c0ca146102db578063a0ced69d1461030e576100f3565b806323b872dd116100c657806323b872dd14610200578063313ce5671461024357806350ca75551461025857806370a0823114610260576100f3565b806306fdde03146100f8578063095ea7b3146101825780631249c58b146101cf57806318160ddd146101d9575b600080fd5b34801561010457600080fd5b5061010d610410565b6040805160208082528351818301528351919283929083019185019080838360005b8381101561014757818101518382015260200161012f565b50505050905090810190601f1680156101745780820380516001836020036101000a031916815260200191505b509250505060405180910390f35b34801561018e57600080fd5b506101bb600480360360408110156101a557600080fd5b506001600160a01b03813516906020013561049b565b604080519115158252519081900360200190f35b6101d76104ca565b005b3480156101e557600080fd5b506101ee61055e565b60408051918252519081900360200190f35b34801561020c57600080fd5b506101bb6004803603606081101561022357600080fd5b506001600160a01b03813581169160208101359091169060400135610564565b34801561024f57600080fd5b506101ee6105cb565b6101d76105d1565b34801561026c57600080fd5b506101ee6004803603602081101561028357600080fd5b50356001600160a01b031661071b565b34801561029f57600080fd5b506101d7600480360360208110156102b657600080fd5b50356001600160a01b031661072d565b3480156102d257600080fd5b5061010d610810565b3480156102e757600080fd5b506101d7600480360360208110156102fe57600080fd5b50356001600160a01b031661086b565b34801561031a57600080fd5b506101ee610930565b34801561032f57600080fd5b506101ee6004803603602081101561034657600080fd5b50356001600160a01b0316610936565b34801561036257600080fd5b506101bb6004803603604081101561037957600080fd5b506001600160a01b038135169060200135610955565b34801561039b57600080fd5b506103b9600480360360208110156103b257600080fd5b503561096b565b604080516001600160a01b039092168252519081900360200190f35b3480156103e157600080fd5b506101ee600480360360408110156103f857600080fd5b506001600160a01b03813581169160200135166109b3565b6002805460408051602060018416156101000260001901909316849004601f810184900484028201840190925281815292918301828280156104935780601f1061046857610100808354040283529160200191610493565b820191906000526020600020905b81548152906001019060200180831161047657829003601f168201915b505050505081565b3360009081526005602090815260408083206001600160a01b0386168452909152902081905560015b92915050565b60003411610518576040805162461bcd60e51b8152602060048201526016602482015275151bdad95b8e881b9bc8115512081cdd5c1c1b1a595960521b604482015290519081900360640190fd5b3360009081526004602052604090205461053290346109de565b336000908152600460205260408120919091555461055090346109de565b60005561055c33610a3f565b565b60005481565b6001600160a01b03831660009081526005602090815260408083203384529091528120546105929083610ba5565b6001600160a01b03851660009081526005602090815260408083203384529091529020556105c1848484610be7565b5060019392505050565b60015481565b60003411610626576040805162461bcd60e51b815260206004820152601b60248201527f546f6b656e3a206e6f206469766964656e6420737570706c6965640000000000604482015290519081900360640190fd5b6000805411610670576040805162461bcd60e51b8152602060048201526011602482015270546f6b656e3a206e6f20686f6c6465727360781b604482015290519081900360640190fd5b60005b6008548110156107185760006008828154811061068c57fe5b600091825260208083209091015482546001600160a01b03909116808452600490925260408320549193506106cc916106c6903490610cd8565b90610d31565b6001600160a01b0383166000908152600660205260409020549091506106f290826109de565b6001600160a01b0390921660009081526006602052604090209190915550600101610673565b50565b60046020526000908152604090205481565b336000908152600460205260408120805490829055905461074e9082610ba5565b60005561075a33610a3f565b806107655750610718565b6040516000906001600160a01b0384169083908381818185875af1925050503d80600081146107b0576040519150601f19603f3d011682016040523d82523d6000602084013e6107b5565b606091505b505090508061080b576040805162461bcd60e51b815260206004820152601b60248201527f546f6b656e3a206275726e207472616e73666572206661696c65640000000000604482015290519081900360640190fd5b505050565b6003805460408051602060026001851615610100026000190190941693909304601f810184900484028201840190925281815292918301828280156104935780601f1061046857610100808354040283529160200191610493565b33600090815260066020526040812080549190558061088a5750610718565b6040516000906001600160a01b0384169083908381818185875af1925050503d80600081146108d5576040519150601f19603f3d011682016040523d82523d6000602084013e6108da565b606091505b505090508061080b576040805162461bcd60e51b815260206004820152601f60248201527f546f6b656e3a206469766964656e64207472616e73666572206661696c656400604482015290519081900360640190fd5b60085490565b6001600160a01b0381166000908152600660205260409020545b919050565b6000610962338484610be7565b50600192915050565b600081158061097b575060085482115b1561098857506000610950565b6008600183038154811061099857fe5b6000918252602090912001546001600160a01b031692915050565b6001600160a01b03918216600090815260056020908152604080832093909416825291909152205490565b600082820183811015610a38576040805162461bcd60e51b815260206004820152601b60248201527f536166654d6174683a206164646974696f6e206f766572666c6f770000000000604482015290519081900360640190fd5b9392505050565b6001600160a01b03811660009081526007602090815260408083205460049092529091205415610acf5780610ac957600880546001810182557ff3f7a9fe364faab93b216da50a3214154f22a0a2b415b23a84c8169e8b636ee30180546001600160a01b0319166001600160a01b0385169081179091559054600091825260076020526040909120555b50610718565b80610ada5750610718565b60088054906000906000198301838110610af057fe5b6000918252602090912001546001600160a01b03169050828214610b59578060086001850381548110610b1f57fe5b600091825260208083209190910180546001600160a01b0319166001600160a01b0394851617905591831681526007909152604090208390555b6008805480610b6457fe5b60008281526020808220830160001990810180546001600160a01b03191690559092019092556001600160a01b038616825260079052604081205550505050565b6000610a3883836040518060400160405280601e81526020017f536166654d6174683a207375627472616374696f6e206f766572666c6f770000815250610d73565b6001600160a01b038216610c42576040805162461bcd60e51b815260206004820152601860248201527f546f6b656e3a20696e76616c696420726563697069656e740000000000000000604482015290519081900360640190fd5b6001600160a01b038316600090815260046020526040902054610c659082610ba5565b6001600160a01b038085166000908152600460205260408082209390935590841681522054610c9490826109de565b6001600160a01b038316600090815260046020526040902055610cb683610a3f565b826001600160a01b0316826001600160a01b03161461080b5761080b82610a3f565b600082610ce7575060006104c4565b82820282848281610cf457fe5b0414610a385760405162461bcd60e51b8152600401808060200182810382526021815260200180610e706021913960400191505060405180910390fd5b6000610a3883836040518060400160405280601a81526020017f536166654d6174683a206469766973696f6e206279207a65726f000000000000815250610e0a565b60008184841115610e025760405162461bcd60e51b81526004018080602001828103825283818151815260200191508051906020019080838360005b83811015610dc7578181015183820152602001610daf565b50505050905090810190601f168015610df45780820380516001836020036101000a031916815260200191505b509250505060405180910390fd5b505050900390565b60008183610e595760405162461bcd60e51b8152602060048201818152835160248401528351909283926044909101919085019080838360008315610dc7578181015183820152602001610daf565b506000838581610e6557fe5b049594505050505056fe536166654d6174683a206d756c7469706c69636174696f6e206f766572666c6f77a2646970667358221220d9aa3d152a0766aa01bafd9eced890cc94447e9c4595606aa788b998bdbaa73f64736f6c63430007000033",
  "linkReferences": {},
  "deployedLinkReferences": {}
}